:0300000002101AD1
:0C101A00787FE4F6D8FD75813902106182
:100E180050524F50454C4C455220444953504C4138
:100E280059004D414445204259000000000000008F
:100E38007E0909097E007F49494936003E41414102
:100E480022007F4141413E007F49494941007F09D5
:100E5800090901003E4149497A007F0808087F00D6
:100E680000417F410000304040403F007F0814228D
:100E780041007F40404040007F0204027F007F0223
:100E880004087F003E4141413E007F0909090600F0
:100E98003E4151215E007F090919660026494949EA
:100EA800320001017F0101003F4040403F001F2008
:100EB80040201F003F403C403F006314081463007B
:100EC800070870080700714945430000205454542E
:100ED80078007F4444443800384444442800384467
:100EE80044447F00385454541800087E090900000F
:100EF80018A4A4A47C007F040478000000007D00EE
:100F080000004080847D00007F102844000000001D
:100F18007F4000007C04180478007C0404780000FA
:100F2800384444443800FC44444438003844444479
:100F3800FC00447844040800085454542000043E3B
:100F4800442400003C40207C00001C2040201C0061
:100F58003C6030603C006C10106C00009CA0603C51
:080F680000006454544C000029
:10113600122750524F5050454C4552204449535067
:101146004C4159000139000221000002250000C16E
:0511560000022300006F
:10115C00E4F5A0F580D2B2758921D2AFD2A8D2889D
:10116C00D2A9D289759850E587D2E7F587758DF7A6
:05117C00D28ED2AC226E
:03002300021101C6
:10110100C0E0C0D075D000C00030981FC3E539944D
:1011110012748094807427500B2539F8A6990539EB
:10112100C29880E52539F8760080DE753900D00057
:05113100D0D0D0E03237
:030003000211984F
:1011980020000B758A00758C00D28CD2003230008A
:0611A80004C28CC20032FB
:03000B000211AE31
:0D11AE00C0E00524E52470020523D0E032E6
:100F7000E4FBFAF50DF50CF50BF50AD2A83000FDEF
:100F80002000FDC2A8AE23AF24E4FCFD7BFF7AFF66
:100F9000F9F8120CE88F0D8E0C8D0B8C0AAF8CAB10
:100FA00007EBFAAF8AAE02E4FCFDE50D2FF50DE587
:100FB0000C3EF50CED350BF50BEC350AF50AE47F2C
:100FC0000CFEAB0DAA0CA90BA80A120CE8E47B7569
:100FD000FAF9F8120D738F0D8E0C8D0B8C0AC374F9
:100FE000FF950DF50D74FF950CF50CE4950BF50BC5
:100FF000E4950AF50AE4F523F524850C21850D22F4
:10100000AF0DAE0CAD0BAC0A7808120E058F0D8E2D
:091010000C8D0B8C0A8E258F2635
:0110190022B4
:07118100900E32EF93F580A0
:101188008526CD8522CCD2CA30CFFDC2CAC2CF2295
:060800008B0A8A0B890C33
:10080600E4FEAB0AAA0BA90C8E82758300120CBB00
:100816007003020C9BB42015E4FFEFC394067480AA
:1008260094804003020C971211810F80EDAB0AAA47
:100836000BA90C8E82758300120CBBFDB44118E423
:10084600FFEFC39406748094804003020C97900EC9
:10085600381211840F80EAEDB4421CE4FFEFC39412
:1008660006748094804003020C97EF900E3E93F539
:10087600801211880F80E6AB0AAA0BA90C8E82752E
:100886008300120CBBFDB4431CE4FFEFC394067453
:100896008094804003020C97EF900E4493F58012EB
:1008A60011880F80E6EDB4441CE4FFEFC394067490
:1008B6008094804003020C97EF900E4A93F58012C5
:1008C60011880F80E6AB0AAA0BA90C8E82758300ED
:1008D600120CBBFDB4451CE4FFEFC3940674809470
:1008E600804003020C97EF900E5093F5801211880A
:1008F6000F80E6EDB4461CE4FFEFC39406748094C3
:10090600804003020C97EF900E5693F580121188E3
:100916000F80E6AB0AAA0BA90C8E82758300120C17
:10092600BBFDB4471CE4FFEFC3940674809480407B
:1009360003020C97EF900E5C93F5801211880F80DE
:10094600E6EDB4481CE4FFEFC3940674809480403F
:1009560003020C97EF900E6293F5801211880F80B8
:10096600E6AB0AAA0BA90C8E82758300120CBBFD9E
:10097600B4491CE4FFEFC3940674809480400302DC
:100986000C97EF900E6893F5801211880F80E6EDB4
:10099600B44A1CE4FFEFC3940674809480400302BB
:1009A6000C97EF900E6E93F5801211880F80E6ABD0
:1009B6000AAA0BA90C8E82758300120CBBFDB44BE0
:1009C6001CE4FFEFC39406748094804003020C97E6
:1009D600EF900E7493F5801211880F80E6EDB44CFB
:1009E6001CE4FFEFC39406748094804003020C97C6
:1009F600EF900E7A93F5801211880F80E6AB0AAA63
:100A06000BA90C8E82758300120CBBFDB44D1CE441
:100A1600FFEFC39406748094804003020C97EF9016
:100A26000E8093F5801211880F80E6EDB44E1CE41B
:100A3600FFEFC39406748094804003020C97EF90F6
:100A46000E8693F5801211880F80E6AB0AAA0BA9D1
:100A56000C8E82758300120CBBFDB44F1CE4FFEFB5
:100A6600C39406748094804003020C97EF900E8C1A
:100A760093F5801211880F80E6EDB4501CE4FFEF69
:100A8600C39406748094804003020C97EF900E92F4
:100A960093F5801211880F80E6AB0AAA0BA90C8E7B
:100AA60082758300120CBBFDB4511CE4FFEFC394A6
:100AB60006748094804003020C97EF900E9893F58D
:100AC600801211880F80E6EDB4521CE4FFEFC39448
:100AD60006748094804003020C97EF900E9E93F567
:100AE600801211880F80E6AB0AAA0BA90C8E8275BC
:100AF6008300120CBBFDB4531CE4FFEFC3940674D1
:100B06008094804003020C97EF900EA493F5801218
:100B160011880F80E6EDB4541CE4FFEFC39406740D
:100B26008094804003020C97EF900EAA93F58012F2
:100B360011880F80E6AB0AAA0BA90C8E827583007A
:100B4600120CBBFDB4551CE4FFEFC39406748094ED
:100B5600804003020C97EF900EB093F58012118837
:100B66000F80E6EDB4561CE4FFEFC3940674809440
:100B7600804003020C97EF900EB693F58012118811
:100B86000F80E6AB0AAA0BA90C8E82758300120CA5
:100B9600BBFDB4571CE4FFEFC394067480948040F9
:100BA60003020C97EF900EBC93F5801211880F800C
:100BB600E6EDB4581CE4FFEFC394067480948040BD
:100BC60003020C97EF900EC293F5801211880F80E6
:100BD600E6AB0AAA0BA90C8E82758300120CBBFD2C
:100BE600B4591CE4FFEFC39406748094804003025A
:100BF6000C97EF900EC893F5801211880F80E6EDE2
:100C0600B45A1CE4FFEFC394067480948040030238
:100C16000C97EF900ECE93F5801211880F80E6ABFD
:100C26000AAA0BA90C8E82758300120CBBFDB46157
:100C360019E4FFEFC39406748094805054EF900E2D
:100C4600D493F5801211880F80E9EDB46219E4FFA0
:100C5600EFC39406748094805037EF900EDA93F5C4
:100C6600801211880F80E9AB0AAA0BA90C8E827537
:100C76008300120CBBB46319E4FFEFC394067480BF
:100C86009480500DEF900EE093F5801211880F803E
:100C9600E90E020808EEC39412748094805015E49D
:100CA600FFEFC394067480948050061211810F8062
:040CB600F00E80E1DB
:010CBA002217
:1010A600E4F508F50912115CE4F508F509120F706C
:1010B6007BFF7A0E79181208000509E5097002050A
:1010C60008C39432E5086480948040E1E4F508F5AD
:1010D60009F508F509120F707BFF7A0E792A1208B6
:1010E600000509E50970020508C39432E508648025
:0B10F600948040E1E4F508F50980ADAE
:101026000210A6E493A3F8E493A34003F68001F22A
:1010360008DFF48029E493A3F85407240CC8C333CB
:10104600C4540F4420C8834004F456800146F6DF9A
:10105600E4800B0102040810204080901136E47EE3
:10106600019360BCA3FF543F30E509541FFEE4938F
:10107600A360010ECF54C025E060A840B8E493A356
:10108600FAE493A3F8E493A3C8C582C8CAC583CA81
:10109600F0A3C8C582C8CAC583CADFE9DEE780BE39
:01115B000093
:100CBB00BB010CE58229F582E5833AF583E02250EE
:100CCB0006E92582F8E622BBFE06E92582F8E22238
:0D0CDB00E58229F582E5833AF583E4932252
:100CE800E88FF0A4CC8BF0A42CFCE98EF0A42CFCAB
:100CF8008AF0EDA42CFCEA8EF0A4CDA8F08BF0A429
:100D08002DCC3825F0FDE98FF0A42CCD35F0FCEB87
:100D18008EF0A4FEA9F0EB8FF0A4CFC5F02ECD394C
:0F0D2800FEE43CFCEAA42DCE35F0FDE43CFC22B9
:100D370075F008758200EF2FFFEE33FECD33CDCC73
:100D470033CCC58233C5829BED9AEC99E5829840F6
:100D57000CF582EE9BFEED9AFDEC99FC0FD5F0D6D3
:100D6700E4CEFBE4CDFAE4CCF9A88222B800C1B9FD
:100D77000059BA002DEC8BF084CFCECDFCE5F0CB3B
:100D8700F97818EF2FFFEE33FEED33FDEC33FCEB74
:100D970033FB10D703994004EB99FB0FD8E5E4F92F
:100DA700FA227818EF2FFFEE33FEED33FDEC33FC1C
:100DB700C933C910D7059BE99A4007EC9BFCE99A10
:100DC700F90FD8E0E4C9FAE4CCFB2275F010EF2F55
:100DD700FFEE33FEED33FDCC33CCC833C810D70755
:100DE7009BEC9AE899400AED9BFDEC9AFCE899F890
:0E0DF7000FD5F0DAE4CDFBE4CCFAE4C8F92223
:100E0500E8600FECC313FCED13FDEE13FEEF13FFCB
:030E1500D8F122EF
:00000001FF
